:020000040800F2
:1000000000500020E92F00085D080008670800087C
:1000100000000000000000000000000000000000E0
:100020000000000000000000000000006D08000853
:1000300000000000000000007708000881080008A8
:1000400039300008393000083930000839300008EC
:1000500039300008393000083930000839300008DC
:10006000000000003930000891080008393000080D
:1000700039300008393000083930000839300008BC
:1000800039300008B50800083930000800000000C9
:10009000393000083930000839300008393000089C
:1000A000393000083930000839300008CD08000820
:1000B000393000083930000800000000000000005E
:1000C00010B5064C2378002B07D1054B002B02D02E
:1000D000044800E000BF0123237010BD0C00002085
:1000E0000000000094300008044B10B5002B03D032
:1000F0000349044800E000BF10BDC04600000000F6
:100100001000002094300008002243088B4274D372
:1001100003098B425FD3030A8B4244D3030B8B4208
:1001200028D3030C8B420DD3FF22090212BA030C11
:100130008B4202D31212090265D0030B8B4219D3F2
:1001400000E0090AC30B8B4201D3CB03C01A524112
:10015000830B8B4201D38B03C01A5241430B8B425A
:1001600001D34B03C01A5241030B8B4201D30B0343
:10017000C01A5241C30A8B4201D3CB02C01A52416A
:10018000830A8B4201D38B02C01A5241430A8B422D
:1001900001D34B02C01A5241030A8B4201D30B0216
:1001A000C01A5241CDD2C3098B4201D3CB01C01A30
:1001B000524183098B4201D38B01C01A524143093A
:1001C0008B4201D34B01C01A524103098B4201D328
:1001D0000B01C01A5241C3088B4201D3CB00C01A95
:1001E000524183088B4201D38B00C01A524143080D
:1001F0008B4201D34B00C01A5241411A00D2014632
:10020000524110467047FFE701B5002000F006F8A4
:1002100002BDC0460029F7D076E770477047C04658
:10022000002B11D1002A0FD1002900D1002802D0C3
:100230000021C943081C07B4024802A140180290DB
:1002400003BDC046D9FFFFFF03B4684601B502985D
:1002500000F006F8019B9E4602B00CBC7047C046F9
:10026000F0B557464E464546DE46E0B5040083B03D
:100270000D00924699468B422FD82CD049465046C5
:1002800000F0AEF829000600200000F0A9F8331AAB
:100290009846203B9B4600D574E053465A4693400F
:1002A0001F005346424693401E00AF4229D826D035
:1002B0005B46A41BBD41002B00DA79E0002200233D
:1002C0000092019301235A46934001930123424631
:1002D0009340009319E08242D0D90022002300927B
:1002E00001930C9B002B01D01C605D60009801996C
:1002F00003B03CBC90469946A246AB46F0BDA34233
:10030000D6D900220023009201934346002BE8D067
:10031000FB0772081A4346467B080EE0AB4201D148
:10032000A2420CD8A41A9D41012024196D4100213C
:10033000013E24184D41002E06D0AB42EED9013EBD
:1003400024196D41002EF8D15B46009801990019DF
:100350006941002B22DB2B005A46D3402A00444639
:10036000E2401C005B461500002B2CDB26009E4063
:10037000330026004746BE403200801A9941009063
:100380000191AEE7424620239B1A5246DA4041468D
:1003900013004A468A4017001F4382E74246202343
:1003A0009B1A2A0046469A402300F3401343D5E7A0
:1003B0004246202300219B1A002200910192012233
:1003C000DA40019282E74246202326009B1ADE4053
:1003D0002F00B446974066463B003343C9E7C0460A
:1003E00010B5002903D100F007F8203002E0081C06
:1003F00000F002F810BDC0461C2101231B049842E6
:1004000001D3000C10391B0A984201D3000A0839A5
:100410001B09984201D30009043902A2105C40185C
:100420007047C04604030202010101010000000000
:100430000000000080B500AF00F092FA00F00AF86A
:1004400000F010F900F0F0F800F0BEF800F078F8D5
:10045000FEE7000080B59AB000AF3423FB18180007
:1004600034231A00002102F00DFE2023FB1818008F
:1004700014231A00002102F005FE3B00180020237F
:100480001A00002102F0FEFD2B4B2B4A12682B496B
:100490000A40802109010A431A603423FB18102204
:1004A0001A603423FB1801229A613423FB180022BE
:1004B000DA613423FB18C02212021A623423FB18BB
:1004C00000225A623423FB18180000F081FE031E3C
:1004D00001D000F0DDF82023FB180F221A60202342
:1004E000FB1800225A602023FB1800229A60202368
:1004F000FB180022DA602023FB1800221A61202357
:10050000FB180021180001F0DBF9031E01D000F0F8
:10051000BFF83B0001221A603B0000229A603B00BA
:10052000180001F09FFB031E01D000F0B1F8C04697
:10053000BD461AB080BDC04600700040FFE7FFFF17
:1005400080B582B000AF3B00180008231A000021DC
:1005500002F098FD194B1A4A1A60184B64225A602F
:10056000164B00229A60154B164ADA60134B002294
:100570005A61124B180001F0B7FC031E01D000F0C5
:1005800087F80E4B0821180001F0DAFC031E01D099
:1005900000F07EF83B0000221A603B0000225A6007
:1005A0003A00064B1100180001F07EFE031E01D038
:1005B00000F06EF8C046BD4602B080BD3801002094
:1005C00000100040FFFF000080B500AF144B154A3B
:1005D0001A60134BE12212025A60114B00229A60FA
:1005E0000F4B0022DA600E4B00221A610C4B0C22DA
:1005F0005A610B4B00229A61094B0022DA61084BC9
:1006000000221A62064B00225A62054B180001F0C4
:100610008FFE031E01D000F03BF8C046BD4680BDF2
:10062000B80000200038014080B582B000AF0C4B0C
:100630000B4A126B01210A431A63094B1B6B0122FF
:1006400013407B607B68002200210A2000F0A0FAA2
:100650000A2000F0B3FAC046BD4602B080BDC046D5
:100660000010024080B582B000AF084B074AD26A42
:1006700001210A43DA62054BDB6A012213407B60E9
:100680007B68C046BD4602B080BDC0460010024037
:1006900080B500AFC046BD4680BD000080B500AF4C
:1006A000074B074A526B01210A435A63044B044A21
:1006B000926B802149050A439A63C046BD4680BDBE
:1006C0000010024080B582B000AF78607B681B6884
:1006D0000A4A93420DD10A4B094A926B10210A43F0
:1006E0009A6300220021112000F052FA112000F03C
:1006F00065FAC046BD4602B080BDC046001000404D
:100700000010024080B588B000AF78600C23FB1861
:10071000180014231A00002102F0B4FC7B681B6847
:10072000484A934200D089E0474B474A526B8021A8
:10073000C9010A435A63444B434AD26A01210A431E
:10074000DA62414BDB6A01221340BB60BB680C23B9
:10075000FB18C022D2001A600C23FB1802225A6038
:100760000C23FB1800229A600C23FB180322DA608A
:100770000C23FB1804221A610C23FA18A023DB05B2
:100780001100180000F0A6FB304B314A1A602F4BC5
:1007900003225A602D4B00229A602C4B0022DA6013
:1007A0002A4B80221A61294B00225A61274B0022D2
:1007B0009A61264B2022DA61244B00221A62234BD5
:1007C000180000F019FA031E01D0FFF761FF7B68E3
:1007D0001E4ADA661D4B7A689A621E4B1E4A1A60E0
:1007E0001C4B03225A601B4B10229A60194B0022AB
:1007F000DA60184B80221A61164B00225A61154BA1
:1008000000229A61134B0022DA61124B00221A6215
:10081000104B180000F0F0F9031E01D0FFF738FF6D
:100820007B680C4A9A660B4B7A689A620022002118
:100830001B2000F0ADF91B2000F0C0F9C046BD46FA
:1008400008B080BD00380140001002407000002058
:1008500030000240280000201C00024080B500AF9C
:10086000C046BD4680BD80B500AFFEE780B500AF95
:10087000C046BD4680BD80B500AFC046BD4680BD08
:1008800080B500AF00F0C0F8C046BD4680BD000096
:1008900080B500AF054B180000F06EFA044B18004D
:1008A00000F06AFAC046BD4680BDC0462800002060
:1008B0007000002080B500AF034B180001F085FBED
:1008C000C046BD4680BDC0463801002080B500AF9F
:1008D000034B180001F080FDC046BD4680BDC046F8
:1008E000B800002080B500AF174B174A126880216E
:1008F00049000A431A60144B134AD26813490A404C
:10090000DA60114B104A126811490A401A600E4B06
:100910000D4A926801218A439A600B4B0A4A126879
:100920000C490A401A60084B074AD2680A490A4033
:10093000DA60054B00221A61084B802212059A608A
:10094000C046BD4680BDC046001002400C40FF8836
:10095000F6FFF6FEFFFFFBFFFFFF02FF00ED00E0EA
:1009600080B582B000AFFB1D00221A700B4B0B4A02
:10097000126840210A431A60002000F011F8031E9B
:1009800003D0FB1D01221A7001E0FFF787FEFB1D5B
:100990001B781800BD4602B080BDC0460020024052
:1009A00090B583B000AF7860144B1C68144B1B7873
:1009B0001900FA239800FFF7A7FB03001900200095
:1009C000FFF7A2FB0300180000F008F9031E01D096
:1009D00001230FE07B68032B0BD8796801235B426E
:1009E0000022180000F0D4F8064B7A681A60002341
:1009F00000E001231800BD4603B090BD00000020B8
:100A0000080000200400002080B500AF054B1B78D3
:100A10001A00054B1B68D218034B1A60C046BD462E
:100A200080BDC046080000207401002080B500AFE2
:100A3000024B1B681800BD4680BDC04674010020F3
:100A400080B582B000AF0200FB1D1A70064BFA1D84
:100A5000127811001F220A40012191400A001A60F9
:100A6000C046BD4602B080BD00E100E0B0B582B036
:100A700000AF02003960FB1D1A70FB1D1B787F2B35
:100A800032D92F4CFB1D1B781A000F231340083B53
:100A900099082B4AFB1D1B7818000F230340083BC5
:100AA0009B0806339B00D31804331B68FA1D127889
:100AB000100003220240D200FF2090400200D243E7
:100AC0001A403B689B01FF201840FB1D1B781D004E
:100AD00003232B40DB00984003001A438B1D9B002F
:100AE000E31804331A6027E0164CFB1D1B785BB239
:100AF0009B081449FA1D127852B29208C032920033
:100B00005258F91D0978080003210140C900FF204F
:100B100088400100C94311403A689201FF2010400B
:100B2000FA1D1278150003222A40D20090400200DC
:100B30000A43C0339B001A51C046BD4602B0B0BD47
:100B400000ED00E000E100E080B582B000AF786029
:100B50007B68013B0C4A934201D9012310E00B4B07
:100B60007A68013A5A6001235B4203211800FFF7BB
:100B70007DFF064B00229A60044B07221A60002377
:100B80001800BD4602B080BDFFFFFF0010E000E08E
:100B900080B584B000AFB9607A600F23FB18021CE7
:100BA0001A70BA680F23FB181B785BB2110018008B
:100BB000FFF75CFFC046BD4604B080BD80B582B083
:100BC00000AF0200FB1D1A70FB1D1B785BB2180002
:100BD000FFF736FFC046BD4602B080BD80B582B08B
:100BE00000AF78607B681800FFF7AEFF03001800C5
:100BF000BD4602B080BD000090B585B000AF786002
:100C00007B68002B01D1012362E07B681B68324ABC
:100C10009446634414211800FFF776FA03009A0003
:100C20007B685A647B682D4A1A647B6825220221FE
:100C300099547B681B681B68FB60FB68284A13405B
:100C4000FB607B689A687B68DB681A437B681B697A
:100C50001A437B685B691A437B689B691A437B680C
:100C6000DB691A437B681B6A1343FA681343FB6012
:100C70007B681B68FA681A607B689A688023DB01CE
:100C80009A4219D0174A174B19687B685B6C1C2075
:100C900003400F2098400300DB430B401360114AD0
:100CA000104B19687B6858687B685B6C1C24234078
:100CB000984003000B4313607B680022DA637B6873
:100CC0002522012199547B68242200219954002374
:100CD0001800BD4605B090BDF8FFFDBF0000024002
:100CE0000F80FFFFA800024080B584B000AF78609D
:100CF0000F23FB1800221A707B6825229B5CDBB255
:100D0000022B07D07B680422DA630F23FB18012231
:100D10001A702AE07B681B687A68126812680E21D4
:100D20008A431A607B681B687A681268126801211E
:100D30008A431A607B681B6C7A68526C1C210A40DB
:100D4000012191400A005A607B68252201219954B3
:100D50007B682422002199547B689B6B002B04D074
:100D60007B689B6B7A68100098470F23FB181B78F1
:100D70001800BD4604B080BD80B584B000AF786077
:100D80007B681B6C1B68FB607B681B681B68BB6017
:100D90007B685B6C1C22134004229A401300FA68A3
:100DA000134026D0BB680422134022D07B681B6806
:100DB0001B682022134007D17B681B687A68126881
:100DC000126804218A431A607B681B6C7A68526C33
:100DD0001C210A40042191400A005A607B681B6B69
:100DE000002B00D171E07B681B6B7A68100098477C
:100DF0006BE07B685B6C1C22134002229A4013005C
:100E0000FA6813402DD0BB680222134029D07B68BA
:100E10001B681B68202213400BD17B681B687A6813
:100E2000126812680A218A431A607B682522012110
:100E300099547B681B6C7A68526C1C210A40022111
:100E400091400A005A607B682422002199547B68F3
:100E5000DB6A002B39D07B68DB6A7A681000984720
:100E600033E07B685B6C1C22134008229A4013001D
:100E7000FA6813402AD0BB680822134026D07B684A
:100E80001B687A68126812680E218A431A607B68B0
:100E90001B6C7A68526C1C210A40012191400A00A7
:100EA0005A607B680122DA637B682522012199540C
:100EB0007B682422002199547B685B6B002B05D052
:100EC0007B685B6B7A6810009847C046C046BD4699
:100ED00004B080BD80B586B000AF78603960002373
:100EE0007B610023FB6000233B6155E13B681B688D
:100EF00001217A6991400A001340FB60FB68002BD6
:100F000000D146E13B685B68012B0BD03B685B6816
:100F1000022B07D03B685B68112B03D03B685B68F2
:100F2000122B30D17B689B683B617B695B0003229D
:100F30009A401300DA433B6913403B613B68DA682F
:100F40007B695B009A4013003A6913433B617B68FD
:100F50003A699A607B685B683B6101227B699A40D1
:100F60001300DA433B6913403B613B685B681B0934
:100F700001221A407B699A4013003A6913433B618E
:100F80007B683A695A607B68DB683B617B695B0020
:100F900003229A401300DA433B6913403B613B68EC
:100FA0009A687B695B009A4013003A6913433B617E
:100FB0007B683A69DA603B685B68022B03D03B6868
:100FC0005B68122B23D17B69DA087B6808329200B8
:100FD000D3583B617B69072213409B000F229A4044
:100FE0001300DA433B6913403B613B681A697B6934
:100FF00007210B409B009A4013003A6913433B6161
:101000007B69DA087B68083292003969D1507B68C5
:101010001B683B617B695B0003229A401300DA4343
:101020003B6913403B613B685B6803221A407B6964
:101030005B009A4013003A6913433B617B683A694D
:101040001A603B685A6880235B05134000D1A0E01A
:10105000574B574A526B01210A435A63554A7B69E1
:101060009B0802339B009B583B617B690322134022
:101070009B000F229A401300DA433B6913403B6107
:101080007A68A023DB059A421FD07B684A4A9342C4
:1010900019D07B68494A934213D07B68484A9342EF
:1010A0000DD07B68474A934207D07B68464A9342FB
:1010B00001D105230AE0062308E0042306E0032308
:1010C00004E0022302E0012300E000237A69032107
:1010D0000A40920093403A6913433B6135497B696A
:1010E0009B0802339B003A695A50384B1B683B619E
:1010F000FB68DA433B6913403B613B685A688023D5
:101100005B02134003D03A69FB6813433B612F4BEA
:101110003A691A602D4B5B683B61FB68DA433B69B7
:1011200013403B613B685A6880239B02134003D005
:101130003A69FB6813433B61244B3A695A60234B7D
:101140009B683B61FB68DA433B6913403B613B684A
:101150005A6880235B03134003D03A69FB6813434A
:101160003B611A4B3A699A60184BDB683B61FB683C
:10117000DA433B6913403B613B685A6880239B0319
:10118000134003D03A69FB6813433B610F4B3A6944
:10119000DA607B6901337B613B681A687B69DA40FE
:1011A000131E00D0A2E6C046BD4606B080BDC046B4
:1011B00000100240000001400004005000080050F0
:1011C000000C005000100050001C005000040140B2
:1011D00090B58BB000AF78607B68002B02D1012303
:1011E00000F068FBC74BDB680C221340FB61C54B6A
:1011F000DA6880235B021340BB617B681B680122B5
:10120000134000D17DE0FB69082B07D0FB690C2B54
:1012100012D1BA6980235B029A420DD1B94B1A6888
:1012200080239B02134000D16AE07B685B68002B3F
:1012300066D1012300F03EFB7B685A6880235B0285
:101240009A4207D1AF4BAF4A1268802149020A4344
:101250001A6027E07B685A68A023DB029A420ED10D
:10126000A84BA84A12688021C9020A431A60A54BFC
:10127000A44A1268802149020A431A6012E0A14B75
:10128000A04A1268A0490A401A609E4B1A6880233F
:101290005B021340FB60FB689A4B9A4A12689B49B9
:1012A0000A401A607B685B68002B14D0FFF7BEFB16
:1012B00003007B6108E0FFF7B9FB02007B69D31AEA
:1012C000642B01D90323F5E28E4B1A6880239B021D
:1012D0001340F0D015E0FFF7A9FB03007B6108E0A5
:1012E000FFF7A4FB02007B69D31A642B01D9032307
:1012F000E0E2844B1A6880239B021340F0D100E0A7
:10130000C0467B681B680222134000D197E07B68CF
:10131000DB687B627B6A2022134009D0794B794AD3
:10132000126820210A431A607B6A202293437B6261
:10133000FB69042B05D0FB690C2B3DD1BB69002B4D
:101340003AD1704B1B680422134004D07B6A002BF7
:1013500001D10123AEE26B4A6A4B5B686C491940CC
:101360007B681B691B020B435360664B654A12681E
:1013700009218A4311007A6A0A431A6000F0CAFB05
:101380000100604BDB681B090F221340614AD35CEC
:101390000A00DA40604B1A601323FC180020FFF7A4
:1013A000FFFA030023701323FB181B78002B46D091
:1013B0001323FB181B787DE27B6A002B26D0514B50
:1013C000504A126809218A4311007A6A0A431A6056
:1013D000FFF72CFB03007B6108E0FFF727FB02000F
:1013E0007B69D31A022B01D9032363E2454B1B68A7
:1013F00004221340F1D0434A424B5B6844491940F0
:101400007B681B691B020B43536018E03D4B3D4A50
:10141000126801218A431A60FFF708FB03007B6111
:1014200008E0FFF703FB02007B69D31A022B01D906
:1014300003233FE2334B1B6804221340F1D17B6846
:101440001B681022134000D19EE0FB69002B3FD1A6
:101450002C4B1A6880239B00134005D07B689B6946
:10146000002B01D1012325E2264A264B5B682B493C
:1014700019407B681B6A0B435360224A214B5B680F
:101480001B02190A7B68DB691B060B4353607B68F0
:101490001B6A5B0B0133802212029A40194BDB68F6
:1014A0001B090F210B401B49CB5CDA401A4B1A6019
:1014B0001323FC180020FFF773FA03002370132393
:1014C000FB181B78002B5FD01323FB181B78F1E16E
:1014D0007B689B69002B3DD00A4B0A4A1268802129
:1014E00049000A431A60FFF7A1FA03007B6117E085
:1014F000FFF79CFA02007B69D31A022B10D9032351
:10150000D8E1C04600100240FFFFFEFFFFFFFBFFD7
:10151000FFE0FFFFAC30000800000020FF1FFFFFCE
:10152000C94B1A6880239B001340E1D0C64AC64BC2
:101530005B68C64919407B681B6A0B435360C24A0B
:10154000C14B5B681B02190A7B68DB691B060B43F6
:10155000536019E0BC4BBC4A1268BD490A401A608E
:10156000FFF764FA03007B6108E0FFF75FFA02000F
:101570007B69D31A022B01D903239BE1B24B1A6872
:1015800080239B001340F0D17B681B680822134026
:1015900036D07B685B69002B19D0AB4BAA4A126D21
:1015A00001210A431A65FFF741FA03007B6108E055
:1015B000FFF73CFA02007B69D31A022B01D90323FF
:1015C00078E1A14B1B6D02221340F1D018E09E4B35
:1015D0009D4A126D01218A431A65FFF727FA03001D
:1015E0007B6108E0FFF722FA02007B69D31A022B25
:1015F00001D903235EE1944B1B6D02221340F1D10C
:101600007B681B680422134000D1AFE02323FB1842
:1016100000221A708C4B9A6B80235B0513400AD111
:10162000894B894A926B802149050A439A63232397
:10163000FB1801221A70874B1A6880235B00134045
:101640001AD1844B834A1268802149000A431A60E8
:10165000FFF7ECF903007B6108E0FFF7E7F9020010
:101660007B69D31A642B01D9032323E1794B1A68D0
:1016700080235B001340F0D07B689A6880235B0076
:101680009A4207D1704B704A126D802149000A437B
:101690001A6531E07B689B68002B0CD16A4B6A4A63
:1016A000126D6B490A401A65674B674A126D6A49A9
:1016B0000A401A6520E07B689A68A023DB009A4202
:1016C0000ED1614B604A126D8021C9000A431A6530
:1016D0005D4B5D4A126D802149000A431A650BE09B
:1016E000594B594A126D5A490A401A65564B564A87
:1016F000126D59490A401A657B689B68002B15D00A
:10170000FFF794F903007B6109E0FFF78FF902000E
:101710007B69D31A514A934201D90323CAE04A4B49
:101720001A6D80239B001340EFD014E0FFF77EF981
:1017300003007B6109E0FFF779F902007B69D31AA6
:10174000464A934201D90323B4E03F4B1A6D8023EC
:101750009B001340EFD12323FB181B78012B05D1ED
:10176000394B394A926B3E490A409A637B685B6AFF
:10177000002B00D19DE0FB690C2B00D176E07B684B
:101780005B6A022B44D1304B2F4A126835490A401C
:101790001A60FFF74BF903007B6108E0FFF746F999
:1017A00002007B69D31A022B01D9032382E0264B66
:1017B0001A6880239B041340F0D1234A224BDB6834
:1017C000294919407B68986A7B68DB6A18437B6803
:1017D0001B6B03430B43D3601B4B1B4A12688021D6
:1017E00049040A431A60FFF721F903007B6108E00E
:1017F000FFF71CF902007B69D31A022B01D90323DE
:1018000058E0114B1A6880239B041340F0D050E03D
:101810000D4B0D4A126813490A401A60FFF706F98A
:1018200003007B6108E0FFF701F902007B69D31A2E
:10183000022B01D903233DE0034B1A6880239B044C
:101840001340F0D135E0C04600100240FF1FFFFFFB
:10185000FFFEFFFF00700040FFFBFFFF881300004A
:10186000FFFFFFEFFFFFFFFEFFFF02FF7B685B6AEA
:10187000012B01D101231DE0104BDB68BB61BA696C
:1018800080235B021A407B689B6A9A420FD1BA6937
:10189000F0239B031A407B68DB6A9A4207D1BA693E
:1018A000C0231B041A407B681B6B9A4201D00123A2
:1018B00000E000231800BD460BB090BD00100240B0
:1018C00090B585B000AF786039607B68002B01D19E
:1018D00001230CE1884B1B6801221A403B689A42A5
:1018E00011D2854B844A126801218A4311003A685B
:1018F0000A431A60804B1B6801221A403B689A42D7
:1019000001D00123F3E07B681B680222134009D059
:101910007A4A7A4BDB68F0218B4319007B689B681D
:101920000B43D3607B681B680122134000D189E020
:101930007B685B68022B07D1704B1A6880239B027F
:10194000134020D10123D2E07B685B68032B07D1D1
:101950006A4B1A6880239B04134014D10123C6E00C
:101960007B685B68012B06D1644B1B680422134023
:1019700009D10123BBE0614B1A6880239B0013400F
:1019800001D10123B3E05D4A5C4BDB6803218B434B
:1019900019007B685B680B43D360FFF747F80300CF
:1019A000FB607B685B68022B11D109E0FFF73EF812
:1019B0000200FB68D31A524A934201D9032396E0EE
:1019C0004E4BDB680C221340082BEFD13AE07B68CA
:1019D0005B68032B11D109E0FFF728F80200FB68D0
:1019E000D31A474A934201D9032380E0434BDB6873
:1019F0000C2213400C2BEFD124E07B685B68012B99
:101A00001BD109E0FFF712F80200FB68D31A3C4A29
:101A1000934201D903236AE0384BDB680C22134060
:101A2000042BEFD10EE0FFF701F80200FB68D31A98
:101A3000334A934201D9032359E0304BDB680C222F
:101A40001340F0D12C4B1B6801221A403B689A428C
:101A500011D9294B284A126801218A4311003A689A
:101A60000A431A60244B1B6801221A403B689A42C1
:101A700001D001233BE07B681B680422134008D09F
:101A80001E4A1E4BDB681F4919407B68DB680B430D
:101A9000D3607B681B680822134009D0174A174B94
:101AA000DB68194919407B681B69DB000B43D36075
:101AB00000F030F80100114BDB681B090F221340C6
:101AC000124AD35C0A00DA40114B1A600B23FC184F
:101AD0000020FEF765FF030023700B23FB181B7823
:101AE000002B03D00B23FB181B7800E00023180009
:101AF000BD4605B090BDC046002002400010024027
:101B000088130000FFF8FFFFFFC7FFFFAC3000089D
:101B10000000002080B586B000AF324BDB68FB6070
:101B2000FB680C221340082B0ED00C2B0FD0042B7B
:101B300045D12C4B1B681022134002D02A4B3B612D
:101B40004BE02A4B3B6148E0294B3B6145E0FB6899
:101B50009B0C0F221340274AD35CBB60FB689B0D94
:101B60000322134001337B601E4BDA6880235B0243
:101B7000134009D0BB681E4A534379681800FEF72A
:101B8000C3FA03007B6117E0164B1B681022134059
:101B900009D0BB68144A534379681800FEF7B4FAB9
:101BA00003007B6108E0BB68104A53437968180062
:101BB000FEF7AAFA03007B617B693B610DE0094BEC
:101BC0005B685B0B072213403B603B68013380225C
:101BD00012029A4013003B61C0463B691800BD46A3
:101BE00006B080BD0010024000093D000024F40052
:101BF00000127A00C430000880B500AF024B1B68A9
:101C00001800BD4680BDC0460000002080B500AF72
:101C1000FFF7F2FF0100064BDB681B0A07221340A7
:101C2000044AD35CD9400B001800BD4680BDC046B5
:101C300000100240BC30000880B500AFFFF7DCFFA9
:101C40000100064BDB68DB0A07221340044AD35C21
:101C5000D9400B001800BD4680BDC04600100240B0
:101C6000BC30000880B586B000AF78607B681B6828
:101C70002022134000D1C6E01723FB1800221A705F
:101C80008F4B9A6B80235B0513400AD18C4B8C4A97
:101C9000926B802149050A439A631723FB1801229E
:101CA0001A70884B1A6880235B0013401AD1854B49
:101CB000844A1268802149000A431A60FEF7B6FE82
:101CC00003003B6108E0FEF7B1FE02003B69D31A56
:101CD000642B01D90323EEE07A4B1A6880235B0062
:101CE0001340F0D0764B1A68C0239B031340FB606F
:101CF0007B685A68C0239B031A40FB689A4213D042
:101D00007B685A68C0239B021A40C0239B029A42F8
:101D10000AD16B4B1A6880239B021A4080239B02D6
:101D20009A4201D10123C6E0654B1A6DC0239B0284
:101D30001340FB60FB68002B3BD07B685A68C023D4
:101D40009B021A40FB689A4233D07B681B682022B2
:101D500013402ED05A4B1B6D5B4A1340FB60584B0F
:101D6000574A126D802109030A431A65544B544A9D
:101D7000126D56490A401A65514BFA681A65FA689D
:101D800080235B00134014D0FEF750FE03003B613C
:101D900009E0FEF74BFE02003B69D31A4C4A93421E
:101DA00001D9032387E0464B1A6D80239B00134023
:101DB000EFD07B685A68C0239B021A40C0239B0265
:101DC0009A420BD13E4A3E4B1B68424919407B6800
:101DD0005868C0239B0303400B431360384A384BB9
:101DE000196D7B685868C0239B0203400B43136541
:101DF0001723FB181B78012B05D1314B304A926B0E
:101E000035490A409A637B681B680122134009D058
:101E10002B4A2B4BDB6C03218B4319007B689B689F
:101E20000B43D3647B681B680222134009D0244A09
:101E3000234BDB6C0C218B4319007B68DB680B4365
:101E4000D3647B681B680422134008D01C4A1C4BD7
:101E5000DB6C224919407B681B690B43D3647B68A8
:101E60001B680822134008D0154A154BDB6C1C492F
:101E700019407B685B690B43D3647B681A688023D5
:101E80005B00134008D00E4A0D4BDB6C0E49194025
:101E90007B689B690B43D3647B681B68802213407B
:101EA00008D0074A064BDB6C0E4919407B68DB699A
:101EB0000B43D36400231800BD4606B080BDC04666
:101EC0000010024000700040FFFFFCFFFFFFF7FF23
:101ED00088130000FFFFCFFFFFFFFFEFFFF3FFFFBF
:101EE000FFCFFFFFFFFFF3FF80B582B000AF786048
:101EF0007B68002B01D101231EE07B6839229B5CAB
:101F0000DBB2002B07D17B683822002199547B6813
:101F10001800FEF7D7FB7B683922022199547B68B1
:101F20001A687B6804331900100000F05FF97B68C1
:101F300039220121995400231800BD4602B080BD0A
:101F400080B582B000AF786039607B68002B01D12A
:101F500001232EE07B6839229B5CDBB2002B07D18A
:101F60007B683822002199547B68180000F025F81E
:101F70007B683922022199547B681A687B68043394
:101F80001900100000F032F97B681B687A6812684B
:101F9000126808218A431A607B681B687A68126895
:101FA00011683A680A431A607B6839220121995402
:101FB00000231800BD4602B080BD80B582B000AFDE
:101FC0007860C046BD4602B080BD80B582B000AF2B
:101FD00078607B681B681B6902221340022B24D1A6
:101FE0007B681B68DB6802221340022B1DD17B68D3
:101FF0001B68032252421A617B6801221A767B68B1
:102000001B689B690322134004D07B68180000F012
:10201000D4F807E07B68180000F0C7F87B68180068
:1020200000F0D3F87B6800221A767B681B681B6976
:1020300004221340042B25D17B681B68DB68042233
:102040001340042B1ED17B681B68052252421A6183
:102050007B6802221A767B681B689A69C0239B0002
:10206000134004D07B68180000F0A7F807E07B68F5
:10207000180000F09AF87B68180000F0A6F87B685A
:1020800000221A767B681B681B6908221340082B04
:1020900024D17B681B68DB6808221340082B1DD104
:1020A0007B681B68092252421A617B6804221A76F7
:1020B0007B681B68DB690322134004D07B6818002F
:1020C00000F07BF807E07B68180000F06EF87B6892
:1020D000180000F07AF87B6800221A767B681B688B
:1020E0001B6910221340102B25D17B681B68DB680D
:1020F00010221340102B1ED17B681B681122524204
:102100001A617B6808221A767B681B68DA69C0232B
:102110009B00134004D07B68180000F04EF807E0E5
:102120007B68180000F041F87B68180000F04DF85B
:102130007B6800221A767B681B681B6901221340AA
:10214000012B0FD17B681B68DB6801221340012B38
:1021500008D17B681B68022252421A617B68180012
:1021600000F01BF87B681B681B6940221340402B62
:102170000FD17B681B68DB6840221340402B08D1DD
:102180007B681B68412252421A617B68180000F08C
:1021900024F8C046BD4602B080BD80B582B000AF15
:1021A0007860C046BD4602B080BD80B582B000AF49
:1021B0007860C046BD4602B080BD80B582B000AF39
:1021C0007860C046BD4602B080BD80B582B000AF29
:1021D0007860C046BD4602B080BD80B582B000AF19
:1021E0007860C046BD4602B080BD000080B584B0B6
:1021F00000AF786039607B681B68FB607A68802379
:10220000DB059A420BD07B68234A934207D07B6858
:10221000224A934203D07B68214A934208D1FB684B
:1022200070229343FB603B685B68FA681343FB6072
:102230007A688023DB059A420BD07B68164A93426A
:1022400007D07B68154A934203D07B68144A9342B7
:1022500008D1FB68134A1340FB603B68DB68FA68EF
:102260001343FB60FB68802293431A003B681B69A1
:102270001343FB607B68FA681A603B689A687B6866
:10228000DA623B681A687B689A627B6801225A614D
:10229000C046BD4604B080BD0004004000080140B7
:1022A00000140140FFFCFFFF80B584B000AF7860F0
:1022B00039607B6838229B5C012B01D1022332E01C
:1022C0007B683822012199547B6839220221995474
:1022D0007B681B685B68FB607B681B689B68BB60F6
:1022E000FB6870229343FB603B681B68FA681343EA
:1022F000FB60BB6880229343BB603B685B68BA6845
:102300001343BB607B681B68FA685A607B681B6874
:10231000BA689A607B683922012199547B68382217
:102320000021995400231800BD4604B080BD000070
:1023300080B582B000AF78607B68002B01D10123AB
:1023400044E07B685B6F002B07D17B687022002123
:1023500099547B681800FEF7D5F97B6824225A67E8
:102360007B681B687A681268126801218A431A60C8
:102370007B68180000F066F90300012B01D10123EE
:1023800024E07B685B6A002B03D07B68180000F0B8
:1023900095FC7B681B687A68126852680D490A4090
:1023A0005A607B681B687A68126892682A218A439F
:1023B0009A607B681B687A681268126801210A4378
:1023C0001A607B68180000F025FD03001800BD4668
:1023D00002B080BDFFB7FFFF80B588B000AF786066
:1023E0007B681B68DB69FB617B681B681B68BB61E2
:1023F0007B681B689B687B61FB690F2213403B6114
:102400003B69002B12D1FB69202213400ED0BB691F
:10241000202213400AD07B681B6E002B00D1F6E00F
:102420007B681B6E7A6810009847F0E03B69002BD0
:1024300000D1B8E07B690122134005D1BA6990232D
:102440005B00134000D1AEE0FB69012213400ED0C7
:10245000BA6980235B00134009D07B681B680122A6
:102460001A627B68DB6F01221A437B68DA67FB69BB
:10247000022213400DD07B690122134009D07B68F2
:102480001B6802221A627B68DB6F04221A437B6896
:10249000DA67FB69042213400DD07B6901221340E7
:1024A00009D07B681B6804221A627B68DB6F0222FA
:1024B0001A437B68DA67FB690822134011D0BB69B5
:1024C0002022134003D17B690122134009D07B688D
:1024D0001B6808221A627B68DB6F08221A437B683C
:1024E000DA677B68DB6F002B00D192E0FB6920226A
:1024F00013400CD0BB692022134008D07B681B6EB0
:10250000002B04D07B681B6E7A68100098477B68AC
:10251000DB6FFB607B681B689B6840221340402B8D
:1025200003D0FB680822134033D07B68180000F00A
:1025300001FD7B681B689B6840221340402B23D120
:102540007B681B687A681268926840218A439A60A7
:102550007B68DB6E002B12D07B68DB6E304A9A639F
:102560007B68DB6E1800FEF7BFFB031E19D07B688B
:10257000DB6E9A6B7B68DB6E1800904711E07B681E
:10258000180000F057F80CE07B68180000F052F8D3
:1025900007E07B68180000F04DF87B680022DA67DE
:1025A00037E0C04635E0FA6980235B0313400ED064
:1025B0007A698023DB03134009D07B681B68802283
:1025C00052031A627B68180000F005FD24E0FB69E5
:1025D000802213400DD0BB698022134009D07B6854
:1025E0005B6E002B17D07B685B6E7A681000984793
:1025F00011E0FB69402213400ED0BB69402213401A
:102600000AD07B68180000F0CCFCC04604E0C0464D
:1026100002E0C04600E0C046BD4608B080BDC046EE
:10262000752F000880B582B000AF7860C046BD4607
:1026300002B080BD80B582B000AF7860C046BD46B4
:1026400002B080BDB0B58EB000AFF8611B23182278
:102650009446BC44634410221A700023FB62132387
:1026600018229446BC44634400221A7000237B6203
:10267000FB699A68FB691B691A43FB695B691A432A
:10268000FB69DB6913437B63FB691B68FA691268AA
:102690001268C84911407A6B0A431A60FB691B68CB
:1026A000FA6912685268C4491140FA69D2680A434B
:1026B0005A60FB699B697B63FB691B68BF4A934255
:1026C00004D0FB691B6A7A6B13437B63FB691B684D
:1026D000FA6912689268BA4911407A6B0A439A60A3
:1026E000FB691B68B74A934234D1B74BDB6C0322BA
:1026F0001340012B15D004D3022B0AD0032B18D082
:102700001FE01B2318229446BC44634401221A7024
:10271000C5E01B2318229446BC44634402221A706D
:10272000BDE01B2318229446BC44634404221A7063
:10273000B5E01B2318229446BC44634408221A7057
:10274000ADE01B2318229446BC44634410221A7047
:10275000C046A4E0FB691B689C4A934237D19A4B60
:10276000DB6C0C221340042B18D002D8002B05D0B0
:1027700024E0082B0AD00C2B18D01FE01B231822B2
:102780009446BC44634400221A7088E01B2318223C
:102790009446BC44634402221A7080E01B23182232
:1027A0009446BC44634404221A7078E01B23182228
:1027B0009446BC44634408221A7070E01B2318221C
:1027C0009446BC44634410221A70C04667E0FB691B
:1027D0001B687F4A934207D11B2318229446BC44AE
:1027E000634400221A705AE0FB691B68794A9342DD
:1027F00007D11B2318229446BC44634400221A705C
:102800004DE0FB691B686D4A934241D16E4BDA6C17
:10281000C0231B0113408022D20093421FD080228C
:10282000D200934202D8002B09D028E08022120166
:1028300093420CD0C0221201934218D01FE01B23F8
:1028400018229446BC44634400221A7027E01B23DC
:1028500018229446BC44634402221A701FE01B23D2
:1028600018229446BC44634404221A7017E01B23C8
:1028700018229446BC44634408221A700FE01B23BC
:1028800018229446BC44634410221A70C04606E0E5
:102890001B2318229446BC44634410221A70FB691F
:1028A0001B68464A934200D09EE01B2318229446A0
:1028B000BC4463441B78022B0DD002DC002B05D0F6
:1028C0001DE0042B12D0082B15D018E0FFF79EF95D
:1028D00003007B621BE03C4B1B681022134002D0BC
:1028E0003D4B7B6213E03D4B7B6210E0FFF712F93A
:1028F00003007B620BE080231B027B6207E0132353
:1029000018229446BC44634401221A70C0467B6A74
:10291000002B00D1B1E1FB695A6813005B009A18E3
:102920007B6A9A4205D8FB695B681A037B6A9A4204
:1029300007D2132318229446BC44634401221A7020
:102940009BE17B6A3B6100237B6139697A690B00FB
:102950001B0E100005021D430B001C02FB695B6887
:102960005B08BB600023FB60B868F9680019694127
:10297000FB695B683B6000237B603A687B68FDF71E
:102980004FFC03000C00FB62FB6A154A934208D916
:10299000FB6A144A934204D8FB691B68FA6ADA603E
:1029A0006BE1132318229446BC44634401221A703D
:1029B00063E1C046F369FFEFFFCFFFFF004800402F
:1029C000FFF4FFFF003801400010024000440040C7
:1029D000004C00400050004000093D000024F4007D
:1029E000FF020000FFFF0F00FB69DA6980231B0272
:1029F0009A4200D0B3E01B2318229446BC4463449F
:102A00001B78082B6DD89A00A44BD3181B689F46DF
:102A1000FFF7FCF803005A00FB695B685B08D218FB
:102A2000FB695B6819001000FDF76EFB03009BB2A9
:102A3000FB625EE0FFF700F903005A00FB695B6888
:102A40005B08D218FB695B6819001000FDF75CFB9E
:102A500003009BB2FB624CE0914B1B6810221340B9
:102A60000ED0FB695B685B088E4A9A18FB695B684D
:102A700019001000FDF748FB03009BB2FB6238E031
:102A8000FB695B685B08884A9A18FB695B681900F8
:102A90001000FDF739FB03009BB2FB6229E0FFF752
:102AA00039F803005A00FB695B685B08D218FB69C0
:102AB0005B6819001000FDF727FB03009BB2FB6267
:102AC00017E0FB695B685B08802252029A18FB6979
:102AD0005B6819001000FDF717FB03009BB2FB6257
:102AE00007E0132318229446BC44634401221A7061
:102AF000C046FB6A0F2B2AD9FB6A6C4A934226D840
:102B0000FB6A9AB20A2318218C46BC4463440F2105
:102B10008A431A80FB6A5B089BB20722134099B272
:102B20000A2318229446BC4463440A22182084468F
:102B3000BC44624412880A431A80FB691B680A225B
:102B400018218C46BC4462441288DA6095E0132355
:102B500018229446BC44634401221A708DE01B2362
:102B600018229446BC4463441B78082B6AD89A0008
:102B70004F4BD3181B689F46FFF748F80200FB69CC
:102B80005B685B08D218FB695B6819001000FDF7F1
:102B9000BBFA03009BB2FB625CE0FFF74DF802005A
:102BA000FB695B685B08D218FB695B681900100061
:102BB000FDF7AAFA03009BB2FB624BE0384B1B689F
:102BC000102213400ED0FB695B685B08394A9A18E3
:102BD000FB695B6819001000FDF796FA03009BB2D1
:102BE000FB6237E0FB695B685B08334A9A18FB6954
:102BF0005B6819001000FDF787FA03009BB2FB62C7
:102C000028E0FEF787FF0200FB695B685B08D218CB
:102C1000FB695B6819001000FDF776FA03009BB2B0
:102C2000FB6217E0FB695B685B08802212029A185E
:102C3000FB695B6819001000FDF766FA03009BB2A0
:102C4000FB6207E0132318229446BC44634401222C
:102C50001A70C046FB6A0F2B08D9FB6A134A9342CD
:102C600004D8FB691B68FA6ADA6006E013231822AD
:102C70009446BC44634401221A70FB6900221A6620
:102C8000FB6900225A66132318229446BC4463440D
:102C90001B781800BD460EB0B0BDC046D03000084D
:102CA0000010024000127A000048E801FFFF000017
:102CB000F430000800093D000024F40080B582B023
:102CC00000AF78607B685B6A012213400AD07B68A2
:102CD0001B687A6812685268454911407A68926A9E
:102CE0000A435A607B685B6A022213400AD07B6801
:102CF0001B687A68126852683E4911407A68D26A45
:102D00000A435A607B685B6A042213400AD07B68DE
:102D10001B687A6812685268374911407A68126BEA
:102D20000A435A607B685B6A082213400AD07B68BA
:102D30001B687A6812685268304911407A68526B91
:102D40000A435A607B685B6A102213400AD07B6892
:102D50001B687A6812689268294911407A68926BF8
:102D60000A439A607B685B6A202213400AD07B6822
:102D70001B687A6812689268224911407A68D26B9F
:102D80000A439A607B685B6A402213401BD07B68D1
:102D90001B687A68126852681B4911407A68126C85
:102DA0000A435A607B681A6C80235B039A420AD1FB
:102DB0007B681B687A6812685268144911407A6807
:102DC000526C0A435A607B685B6A802213400AD0C7
:102DD0007B681B687A68126852680D4911407A68EE
:102DE000926C0A435A60C046BD4602B080BDC046E0
:102DF000FFFFFDFFFFFFFEFFFFFFFBFFFF7FFFFF6A
:102E0000FFEFFFFFFFDFFFFFFFFFEFFFFFFF9FFF72
:102E1000FFFFF7FF80B586B002AF78607B680022C5
:102E2000DA67FDF703FE0300FB607B681B681B6825
:102E300008221340082B0DD1FA6880239903786883
:102E4000164B00931300002200F02AF8031E01D055
:102E500003231FE07B681B681B6804221340042BBC
:102E60000DD1FA688023D90378680C4B00931300C6
:102E7000002200F015F8031E01D003230AE07B684E
:102E800020225A677B6820229A677B687022002183
:102E9000995400231800BD4604B080BDFFFFFF0118
:102EA00080B584B000AFF860B9603B60FB1D1A705C
:102EB00029E0BB69013326D0FDF7B8FD02003B686D
:102EC000D21ABB699A4202D8BB69002B1BD1FB689E
:102ED0001B68FA681268126815490A401A60FB6894
:102EE0001B68FA681268926801218A439A60FB683D
:102EF00020225A67FB6820229A67FB687022002113
:102F0000995403230FE0FB681B68DB69BA681A4019
:102F1000BB68D31A5A425341DBB21A00FB1D1B781F
:102F20009A42C6D000231800BD4604B080BDC046FA
:102F30005FFEFFFF80B582B000AF78607B681B68E2
:102F40007A68126812680A490A401A607B681B682E
:102F50007A681268926801218A439A607B6820220D
:102F60009A677B6800221A66C046BD4602B080BDE3
:102F7000DFFEFFFF80B584B000AF78607B689B6A9E
:102F8000FB60FB685A2200219952FB685222002103
:102F90009952FB681800FFF74DFBC046BD4604B0D0
:102FA00080BD80B582B000AF78607B681B687A68AE
:102FB0001268126840218A431A607B6820225A678F
:102FC0007B6800225A667B681800FFF72BFBC0461F
:102FD000BD4602B080BD80B582B000AF7860C0460B
:102FE000BD4602B080BD00000D488546002103E0CB
:102FF0000C4B5B58435004310B480C4B42189A421F
:10300000F6D30B4A02E0002313600432094B9A42C4
:10301000F9D3FDF767FC00F011F8FDF70BFAFEE7B6
:103020000050002028310008000000200C00002083
:103030000C00002078010020FEE7000070B500269B
:103040000C4D0D4C641BA410A64209D1002600F0C3
:1030500021F80A4D0A4C641BA410A64205D170BD8C
:10306000B300EB5898470136EEE7B300EB589847AA
:103070000136F2E720310008203100082031000835
:103080002431000803008218934200D17047197060
:103090000133F9E7F8B5C046F8BC08BC9E46704756
:0C30A000F8B5C046F8BC08BC9E4670475E
:1030AC0000000000000000000102030406070809EC
:1030BC000000000001020304030406080C10182091
:1030CC0030000000102A0008342A0008582A000892
:1030DC00E22A00089E2A0008E22A0008E22A0008D8
:1030EC00E22A0008C22A0008782B00089A2B000854
:1030FC00BC2B0008442C0008022C0008442C0008AF
:0C310C00442C0008442C0008242C00086F
:0831180048D1FF7F0100000017
:04312000E9000008BA
:04312400C1000008DE
:0C31280000002000040000000100000076
:0400000508002FE9D7
:00000001FF
